{
    "contractName": "MarksContract",
    "abi": [
        {
            "inputs": [],
            "stateMutability": "nonpayable",
            "type": "constructor"
        },
        {
            "anonymous": false,
            "inputs": [
                {
                    "indexed": false,
                    "internalType": "bytes32",
                    "name": "",
                    "type": "bytes32"
                },
                {
                    "indexed": false,
                    "internalType": "uint256",
                    "name": "",
                    "type": "uint256"
                }
            ],
            "name": "evaluatedStudent",
            "type": "event"
        },
        {
            "anonymous": false,
            "inputs": [
                {
                    "indexed": false,
                    "internalType": "string",
                    "name": "",
                    "type": "string"
                }
            ],
            "name": "revisionEvent",
            "type": "event"
        },
        {
            "inputs": [
                {
                    "internalType": "string",
                    "name": "_studentId",
                    "type": "string"
                }
            ],
            "name": "askForRevision",
            "outputs": [],
            "stateMutability": "nonpayable",
            "type": "function"
        },
        {
            "inputs": [
                {
                    "internalType": "string",
                    "name": "_studentId",
                    "type": "string"
                },
                {
                    "internalType": "uint256",
                    "name": "_mark",
                    "type": "uint256"
                }
            ],
            "name": "evaluate",
            "outputs": [],
            "stateMutability": "nonpayable",
            "type": "function"
        },
        {
            "inputs": [
                {
                    "internalType": "string",
                    "name": "_studentId",
                    "type": "string"
                }
            ],
            "name": "getMark",
            "outputs": [
                {
                    "internalType": "uint256",
                    "name": "",
                    "type": "uint256"
                }
            ],
            "stateMutability": "view",
            "type": "function"
        },
        {
            "inputs": [],
            "name": "getRevisions",
            "outputs": [
                {
                    "internalType": "string[]",
                    "name": "",
                    "type": "string[]"
                }
            ],
            "stateMutability": "view",
            "type": "function"
        },
        {
            "inputs": [],
            "name": "professor",
            "outputs": [
                {
                    "internalType": "address",
                    "name": "",
                    "type": "address"
                }
            ],
            "stateMutability": "view",
            "type": "function"
        }
    ],
    "bytecode": "608060405234801561001057600080fd5b50600080546001600160a01b031916331790556106d3806100326000396000f3fe608060405234801561001057600080fd5b50600436106100575760003560e01c80635113940d1461005c5780637b81880c1461008c57806386ceeab2146100a1578063a8a581ea146100b4578063f1ef6b78146100c9575b600080fd5b60005461006f906001600160a01b031681565b6040516001600160a01b0390911681526020015b60405180910390f35b61009f61009a3660046104ec565b6100ea565b005b61009f6100af366004610531565b6101be565b6100bc61023c565b60405161008391906105ca565b6100dc6100d7366004610531565b610370565b604051908152602001610083565b6000546001600160a01b031633146101495760405162461bcd60e51b815260206004820152601b60248201527f4f6e6c792063616c6c61626c652062792070726f666573736f722e000000000060448201526064015b60405180910390fd5b60008260405160200161015c919061062c565b60408051808303601f19018152828252805160209182012060008181526001835283902086905580845290830185905292507fc3199f321819fde9af3d6d11fb6b566c16d22aacd10d8d7330116feaef181f91910160405180910390a1505050565b600280546001810182556000919091528151610201917f405787fa12a823e0f2b7631cc41b3ba8828b3321ca811111fa75cd3aa3bb5ace019060208401906103b0565b507f7f2cee99e6a7d1669fb427ee04c5c8af48fa3458c03dabe9877de204840d4808816040516102319190610648565b60405180910390a150565b6000546060906001600160a01b031633146102995760405162461bcd60e51b815260206004820152601b60248201527f4f6e6c792063616c6c61626c652062792070726f666573736f722e00000000006044820152606401610140565b6002805480602002602001604051908101604052809291908181526020016000905b828210156103675783829060005260206000200180546102da90610662565b80601f016020809104026020016040519081016040528092919081815260200182805461030690610662565b80156103535780601f1061032857610100808354040283529160200191610353565b820191906000526020600020905b81548152906001019060200180831161033657829003601f168201915b5050505050815260200190600101906102bb565b50505050905090565b60008082604051602001610384919061062c565b60408051601f198184030181529181528151602092830120600090815260019092529020549392505050565b8280546103bc90610662565b90600052602060002090601f0160209004810192826103de5760008555610424565b82601f106103f757805160ff1916838001178555610424565b82800160010185558215610424579182015b82811115610424578251825591602001919060010190610409565b50610430929150610434565b5090565b5b808211156104305760008155600101610435565b634e487b7160e01b600052604160045260246000fd5b600082601f83011261047057600080fd5b813567ffffffffffffffff8082111561048b5761048b610449565b604051601f8301601f19908116603f011681019082821181831017156104b3576104b3610449565b816040528381528660208588010111156104cc57600080fd5b836020870160208301376000602085830101528094505050505092915050565b600080604083850312156104ff57600080fd5b823567ffffffffffffffff81111561051657600080fd5b6105228582860161045f565b95602094909401359450505050565b60006020828403121561054357600080fd5b813567ffffffffffffffff81111561055a57600080fd5b6105668482850161045f565b949350505050565b60005b83811015610589578181015183820152602001610571565b83811115610598576000848401525b50505050565b600081518084526105b681602086016020860161056e565b601f01601f19169290920160200192915050565b6000602080830181845280855180835260408601915060408160051b870101925083870160005b8281101561061f57603f1988860301845261060d85835161059e565b945092850192908501906001016105f1565b5092979650505050505050565b6000825161063e81846020870161056e565b9190910192915050565b60208152600061065b602083018461059e565b9392505050565b600181811c9082168061067657607f821691505b6020821081141561069757634e487b7160e01b600052602260045260246000fd5b5091905056fea26469706673582212202d696c90cd019701f78263e2cb647ada0e157daa9fc811eaf0232075d00d3da764736f6c634300080a0033",
    "sourcePath": "c:/Users/manue/OneDrive/Escritorio/Cursos/Blockchain-University-Tests-System/marks.sol",
    "compiler": {
        "name": "solc",
        "version": "0.8.10+commit.fc410830"
    },
    "functionHashes": {
        "askForRevision(string)": "86ceeab2",
        "evaluate(string,uint256)": "7b81880c",
        "getMark(string)": "f1ef6b78",
        "getRevisions()": "a8a581ea",
        "professor()": "5113940d"
    },
    "gasEstimates": {
        "creation": {
            "codeDepositCost": "349400",
            "executionCost": "24621",
            "totalCost": "374021"
        },
        "external": {
            "askForRevision(string)": "infinite",
            "evaluate(string,uint256)": "infinite",
            "getMark(string)": "infinite",
            "getRevisions()": "infinite",
            "professor()": "2304"
        }
    }
}